:10082A000137000131000235012C0A27C0F9A4B0B2
:06083A00999282F8809003
:040862007FC87E00CD
:0B086600EF1FAC0670011E4C70F62264
:10039D0075B0FFC2B320B50912086220B5037522EE
:1003AD000130B514E522B4010FE4F5220531E53134
:1003BD00D394024003E4F53120B40912086220B44D
:1003CD000375210130B41FE521B4011AE4F5217440
:1003DD00CE2536F53674FF3535F535C39400500608
:1003ED0075350175369075B0FFC2B220B50912088A
:1003FD006220B50375260130B50AE526B40105E482
:10040D00F526F53720B40912086220B403752501CD
:10041D0030B423E525B4011EE4F52574322536F5F7
:10042D0036E43535F535D3E53694F4E535940140AC
:07043D0005E4F535F5362258
:080871007F187E55DEFEDFFC5E
:01087900225C
:1006D500D2A1D2A000000000000000000000000030
:1006E5000000000000000000000000000000000005
:1006F5000000C2A100000000000000000000000092
:1007050000000000000000000000000000000000E4
:050715000000C2A0225B
:10078C00C2A1D2A000000000000000000000000088
:10079C00000000000000000000000000000000004D
:0507AC000000D2A122B3
:10056600300004C2A18002D2A100000000000000F9
:100576000000000000000000000000000000000075
:1005860000000000000000D2A000000000000000F3
:100596000000000000000000000000000000000055
:1005A60000000000000000C2A0D2A1000000000070
:1005B6000000000000000000000000000000000035
:0A05C6000000000000000000002209
:0B05D0001206801205DBAF051206804A
:1005DB00D2A100000000000000000000000000009D
:1005EB000000000000000000000000000000000000
:1005FB00D2A000000000000000000000000000007E
:10060B0000000000000000000000000000000000DF
:0E061B0030A107C2A012078CC322C2A0D322B6
:10068000E4FEEF30E704D2A18002C2A10000000026
:10069000000000000000000000000000000000005A
:1006A00000000000000000000000D2A0EF25E0FFE5
:1006B000000000000000000000000000000000003A
:1006C0000000000000000000000000000000C2A0C8
:0406D0000EBE08AEA4
:0106D4002203
:060629001206801205DB41
:10062F00E4FED2A000000000000000000000000067
:10063F0000000000000000000000000000000000AB
:10064F000000EF25E0FF30A103430701C2A0000027
:10065F00000000000000000000000000000000008B
:10066F000000000000000000000000000EBE08B2F5
:01067F002258
:1007B100AD071206D57F901205D012078C1206D50F
:1007C1007F911206298F241205DBC20012056612E1
:0507D100078CAF24229B
:1007F800AD071206D57F901206801205DB7F4012E6
:0A08080005D0C20012056602078C3D
:1007D600AD071206D57FA01205D012078C1206D5DA
:1007E6007FA11206298F24C20012056612078CAF5C
:0207F6002422BB
:10081200AB071206D57FA01206801205DBAF0312CA
:0808220005D012078C020871D9
:1008410075A0A0E4F580F5A075A0807580FFF5A0E6
:010851002284
:10085200758901758CEC758A78D2AFD2A9D28C22B7
:03000B0002071ACF
:10071A00C0E0C0D0C3E53A9536E5399535501E7527
:10072A008CEC758A770533E533C394C8400F0538D6
:10073A00E538D394054003753800753300C3E53AAC
:10074A009536E53995354003753300D0D0D0E0327F
:10075A00D3E53B9536E4953540057523018014E5CC
:10076A0023B4010FE4F5230537E537D39463400337
:10077A00E4F537E53730E00975A0807580FDE4F5CA
:02078A00A022AB
:10023600C2B67580FFE5317079E50814601914605F
:100246003A1460562403705E75A0C075808075A050
:10025600E0AE39AF3A801475A0C075804075A0E055
:10026600AE39AF3A7C007D0A1201D37C007D0A12BA
:1002760001D374272DF8E6F580802B75A0C0758014
:100286002075A0E0AE39AF3A7C007D641201D374CC
:10029600272FF8E6547FF580800C75A0C075800185
:1002A60075A0E07580C10508E508D394034003E412
:1002B600F508E5316401600302033FE5091460199E
:1002C6001460381460542403706375A0C075808070
:1002D60075A0E0AE35AF36801475A0C07580407548
:1002E600A0E0AE35AF367C007D0A1201D37C007DDE
:1002F6000A1201D374272DF8E6801B75A0C07580FD
:100306002075A0E0AE35AF367C007D641201D37453
:10031600272FF8E6547FF580800C75A0C075800104
:1003260075A0E075808C7F647E001208660509E57D
:1003360009D394034003E4F509E53164027057E5F7
:100346000A14601C1460302402703F75A0C07580CA
:100356008075A0E0E53775F00A84742725F08011D2
:1003660075A0C075804075A0E0E53775F00A842455
:1003760027F8E6F580800C75A0C075800175A0E0B1
:100386007580C87F647E00120866050AE50AD39464
:06039600034003E4F50A38
:01039C00223E
:1004440075350175362CE4FF1207D67535008F36E5
:100454001208411208527F031207B18F3BAC3BE4F0
:1004640012011E7BFC7AFA79FA783F12000E12010F
:10047400528E398F3A12039D120236AE35AF367C56
:10048400007D0A1201D3AC06AD07E4FF1208121274
:10049400075AAE35AF367C007D0A1201D3E53B75B1
:1004A400F00A84D39FE49E400975A0807580FFE420
:1004B400F5A0E538B4050975A0807580FEE4F5A0C3
:1004C400C3E53A9536E5399535408B75A08075803E
:0604D400FFE4F5A08080AA
:10000E00EC4D6011E8497017ED33EC3304600DE4EC
:10001E00FCFFFEFD22E933E8330470F80201BE1244
:10002E00018958046009E4CC248150062850090245
:10003E0001C82840030201C5C0E0EB4A7044B980F4
:10004E0006D0E0FB0201B4EF4E701CBD8008EBFF42
:10005E00EAFEE9FD80EBE98DF0A4FEE5F00200F783
:10006E00E9CDF9EAFEEBFFEF89F0A4FCE5F0CE89CD
:10007E00F0A42EFFE435F0CD89F0A42DFEE435F08A
:10008E008067EF4E7005BD80D780C3EF8BF0A4ACB8
:10009E00F0EE8BF0A42CFCE435F0F8EF8AF0A42CF3
:1000AE00E5F038FCE433CB8DF0A42CFCE5F03BF806
:1000BE00EE8AF0A42CFCE5F038F8E433CF89F0A4F6
:1000CE002CFCE5F038CF3400CE89F0A42FFFE5F0FC
:1000DE003EFEE433C98DF0A42EFEE5F039CD8AF054
:1000EE00A42FFFE5F03EFEE43DFD33D0E0FB5007CC
:1000FE000BBB000F0201C8EC2CFCEF33FFEE33FEFE
:06010E00ED33FD0201A02B
:1001140075F020800E75F010800575F0087D007E66
:10012400007F003392D530D503120228EC334010FF
:10013400EF33FFEE33FEED33FDEC33FCD5F0ED226F
:0E014400E5F0247EA2D513CC92E7CDCEFF22AB
:10015200EDD2E7CD33EC3392D524814006E4FFFEA5
:10016200FDFC22FCE4CFCECDCC24E0501174FF8004
:10017200EDC3CC13CCCD13CDCE13CECF13CF0470A1
:07018200F030D5DE02022877
:10018900E9D2E7C933E833F892D5EDD2E7CD33ECBC
:0701990033FC5002B2D52235
:1001A000EC30E7100FBF000C0EBE00080DBD0004C0
:1001B0000BEB6014A2D5EB13FCED92E7FD2274FF6C
:1001C000FCFDFEFF22E480F8A2D574FF13FC7D80C5
:0301D000E480EFD9
:030000000204DA1D
:0C04DA00787FE4F6D8FD75813B02052117
:1001D300BC000BBE0029EF8DF084FFADF022E4CC10
:1001E300F875F008EF2FFFEE33FEEC33FCEE9DECD9
:1001F300984005FCEE9DFE0FD5F0E9E4CEFD22ED1F
:10020300F8F5F0EE8420D21CFEADF075F008EF2F68
:10021300FFED33FD4007985006D5F0F222C398FD59
:050223000FD5F0EA22F6
:0E022800C3E49FFFE49EFEE49DFDE49CFC22E7
:1004E600020444E493A3F8E493A34003F68001F2E4
:1004F60008DFF48029E493A3F85407240CC8C33317
:10050600C4540F4420C8834004F456800146F6DFE5
:10051600E4800B010204081020408090082AE47E43
:10052600019360BCA3FF543F30E509541FFEE493DA
:10053600A360010ECF54C025E060A840B8E493A3A1
:10054600FAE493A3F8E493A3C8C582C8CAC583CACC
:10055600F0A3C8C582C8CAC583CADFE9DEE780BE84
:0108400000B7
:00000001FF
